:100000000C9457000C9476000C9476000C947600B7
:100010000C9476000C9476000C9476000C94760088
:100020000C9476000C9476000C9476000C94760078
:100030000C9476000C9476000C9476000C94760068
:100040000C9476000C9476000C9476000C94760058
:100050000C9476000C9476000C9476000C94760048
:100060000C9476000C9476000C9476000C94760038
:100070000C9476000C9476000C9476000C94760028
:100080000C9476000C9476000C947600C800CF0097
:10009000D600FB000201090110011D012A015101D6
:1000A000680153015C016401680168016801112461
:1000B0001FBECFEFD0E4DEBFCDBF11E0A0E0B1E0C6
:1000C000E0E4F3E000E00BBF02C007900D92AE3019
:1000D000B107D9F721E0AEE0B1E001C01D92A03137
:1000E000B207E1F70E9478010C949E010C94000085
:1000F000CF93DF9300D01F92CDB7DEB789837B8388
:100100006A8389818A3031F48A819B81BC018DE0C8
:100110000E94780080EC90E0FC018081882F90E0C4
:1001200080729927892BB1F386EC90E02981FC013C
:10013000208380E090E00F900F900F90DF91CF919F
:100140000895CF93DF9300D0CDB7DEB780E290E083
:10015000FC018081809583708A8386E290E0FC01B7
:100160008081898380910E0190910F01CC01A0E0E4
:10017000B0E040E050E028E030E0841B950B281709
:10018000390708F474C08A5B9F4FFC010C949501F9
:1001900081E090E090930F0180930E016DC082E0AA
:1001A00090E090930F0180930E0166C08A818130A8
:1001B00039F483E090E090930F0180930E015CC0CE
:1001C0008A81823039F484E090E090930F0180932B
:1001D0000E0152C08A81833039F485E090E090931B
:1001E0000F0180930E0148C082E090E090930F01D0
:1001F00080930E0141C086E090E090930F018093C0
:100200000E013AC087E090E090930F0180930E01B9
:1002100033C088E090E090930F0180930E012CC0D2
:100220008A81882319F086E090E002C082E090E0A5
:1002300090930F0180930E011FC08A81882319F0CB
:1002400087E090E002C082E090E090930F018093FD
:100250000E0112C08A81882319F088E090E002C064
:1002600082E090E090930F0180930E0105C0109200
:100270000F0110920E01000080910E0190910F016C
:10028000CC01A0E0B0E041E050E027E030E0841B8A
:10029000950B28173907D0F0815B9F4FFC010C9418
:1002A000950119821AC089818F5F898389818A307B
:1002B0008CF089E089830EC089818150898389818E
:1002C000882354F4198208C0198207C0000005C0B1
:1002D000000003C0000001C0000088E290E0298116
:1002E000FC01208300000F900F90DF91CF910895C3
:1002F000CF93DF93CDB7DEB781E290E0FC011082AF
:1003000082E290E02FEFFC01208387E290E02FEF64
:10031000FC01208388E290E0FC01108210920F0122
:1003200010920E010E94A100FDCFEE0FFF1F0024CE
:10033000001C0BBE0790F691E02D0994F894FFCFB6
:0E034000000000020000000078000000000035
:00000001FF
