:100000000C9459000C9478000C9478000C947800AF
:100010000C9478000C9478000C9478000C94780080
:100020000C9478000C9478000C9478000C94780070
:100030000C9478000C94C8000C9478000C94780010
:100040000C9478000C9478000C9478000C94780050
:100050000C9478000C9478000C9478000C94780040
:100060000C9478000C9478000C9478000C94780030
:100070000C9478000C9478000C9478000C94780020
:100080000C9478000C9478000C9478006A02710249
:100090007E0285029202C902D702D002E402F10276
:1000A00018031B03480348031E0348033203480395
:1000B000480311241FBECFEFD0E4DEBFCDBF11E057
:1000C000A0E0B1E0E4E1FAE000E00BBF02C007907D
:1000D0000D92A233B107D9F721E0A2E3B1E001C04C
:1000E0001D92AE33B207E1F70E944E030C9408054F
:1000F0000C940000CF93DF93CDB7DEB781E890E09A
:100100002BE0FC01208388E890E02DE730E0FC0143
:10011000318320838FE690E022E0FC01208384E895
:1001200090E0FC0111821082809100019091010108
:10013000A0910201B09103018093330190933401A7
:10014000A0933501B09336018FE590E02FE530E0C4
:10015000F90120812068FC0120830000DF91CF910C
:100160000895CF93DF93CDB7DEB781E890E0FC012F
:1001700010820000DF91CF910895CF93DF93CDB728
:10018000DEB781E0809332010000DF91CF910895C6
:100190001F920F9200905F000F92112400905B005D
:1001A0000F922F933F934F935F936F937F938F9310
:1001B0009F93AF93BF93EF93FF93CF93DF93CDB70D
:1001C000DEB78091330190913401A0913501B09157
:1001D00036010197A109B10980933301909334014D
:1001E000A0933501B0933601809133019091340191
:1001F000A0913501B0913601892B8A2B8B2B91F47C
:100200000E94BD008091000190910101A091020126
:10021000B09103018093330190933401A093350191
:10022000B09336010000DF91CF91FF91EF91BF9124
:10023000AF919F918F917F916F915F914F913F917E
:100240002F910F9000925B000F9000925F000F9033
:100250001F901895CF93DF9300D000D0CDB7DEB7B5
:1002600069837A838B839C8389819A81AB81BC81EA
:100270008093000190930101A0930201B0930301C8
:100280008091000190910101A0910201B0910301C0
:100290008093330190933401A0933501B0933601DC
:1002A00000000F900F900F900F90DF91CF91089565
:1002B000CF93DF9300D01F92CDB7DEB789837B83C6
:1002C0006A8389818A3031F48A819B81BC018DE007
:1002D0000E94580180EC90E0FC018081882F90E022
:1002E00080729927892BB1F386EC90E02981FC017B
:1002F000208380E090E00F900F900F90DF91CF91DE
:1003000008950F931F93CF93DF9300D000D0CDB704
:10031000DEB769837A838B839C83809138019091C7
:100320003901A0913A01B0913B019C01AD01698175
:100330007A818B819C810E947403882309F477C0A1
:1003400020E030E0A90169817A818B819C810E9443
:100350007403882351F481E990E021E930E0F90148
:1003600020812870FC01208309C081E990E021E907
:1003700030E0F90120812360FC01208328E539E386
:1003800044E75FE369817A818B819C810E947403D9
:10039000882344F488E990E02FEF3FEFFC0131839C
:1003A000208334C020E034E244EF56E469817A814E
:1003B0008B819C810E949604181634F488E990E0A1
:1003C000FC011182108222C008E910E020E030E038
:1003D00040E053E469817A818B819C810E949B0477
:1003E000DC01CB019C01AD0160E074E284EF9AE492
:1003F0000E947903DC01CB01BC01CD010E94EB031B
:10040000DC01CB010197F8019183808384E990E0BE
:10041000FC011182108289819A81AB81BC81809319
:10042000380190933901A0933A01B0933B01000049
:100430000F900F900F900F90DF91CF911F910F9120
:100440000895CF93DF93CDB7DEB780E990E020E445
:10045000FC01208381E990E02BE0FC01208360E037
:1004600070E0CB010E9481010000DF91CF910895DF
:10047000CF93DF93CDB7DEB780E990E0FC01108227
:1004800081E990E0FC0110820000DF91CF91089596
:10049000CF93DF931F92CDB7DEB780E290E0FC01EF
:1004A000808180958770898380913C0190913D0186
:1004B000CC01A0E0B0E040E050E029E030E0841B57
:1004C000950B2817390708F499C08A5B9F4FFC01E8
:1004D0000C946B0381E090E090933D0180933C018C
:1004E00092C08981813019F482E090E002C081E0FD
:1004F00090E090933D0180933C0185C083E090E0C3
:1005000090933D0180933C017EC08981813019F434
:1005100083E090E002C084E090E090933D018093FE
:100520003C0171C08981843081F48091370187302A
:1005300028F4809137018F5F8093370185E090E048
:1005400090933D0180933C015EC08981823081F4AB
:1005500080913701882329F0809137018150809361
:10056000370187E090E090933D0180933C014BC0C0
:100570008981813039F489E090E090933D01809346
:100580003C0141C084E090E090933D0180933C01A8
:100590003AC086E090E090933D0180933C0133C0E7
:1005A00088E090E090933D0180933C012CC08981CC
:1005B000843019F486E090E002C084E090E09093EB
:1005C0003D0180933C011FC08981823019F488E08D
:1005D00090E002C084E090E090933D0180933C0164
:1005E00012C08981813019F489E090E002C081E075
:1005F00090E090933D0180933C0105C010923D0135
:1006000010923C01000080913C0190913D01CC0191
:10061000A0E0B0E041E050E028E030E0841B950B22
:100620002817390798F1805B9F4FFC010C946B03EE
:100630000E9438022EC00E9421022BC080913701F7
:10064000882F90E0880F991F880F991F8E5E9E4F0C
:10065000FC0180819181A281B381BC01CD010E9406
:10066000810117C080913701882F90E0880F991F72
:10067000880F991F8E5E9E4FFC0180819181A2811F
:10068000B381BC01CD010E94810103C0000001C003
:10069000000000000F90DF91CF910895CF93DF937A
:1006A000CDB7DEB781E290E0FC01108282E290E0FB
:1006B0002FEFFC01208384E290E020E4FC01208302
:1006C00085E290E0FC01108210923D0110923C0105
:1006D0000E944802FDCFEE0FFF1F0024001C0BBE3E
:1006E0000790F691E02D09940E94210408F481E01E
:1006F00008950E948D030C945C040E94550458F0E8
:100700000E944E0440F029F45F3F29F00C94450408
:1007100051110C9490040C944B040E946D0468F3E6
:100720009923B1F3552391F3951B550BBB27AA27AA
:1007300062177307840738F09F5F5F4F220F331FE4
:10074000441FAA1FA9F335D00E2E3AF0E0E832D0AC
:1007500091505040E695001CCAF72BD0FE2F29D0AF
:10076000660F771F881FBB1F261737074807AB0781
:10077000B0E809F0BB0B802DBF01FF2793585F4FF6
:100780003AF09E3F510578F00C9445040C94900487
:100790005F3FE4F3983ED4F3869577956795B795D8
:1007A000F7959F5FC9F7880F911D9695879597F9E3
:1007B0000895E1E0660F771F881FBB1F621773075C
:1007C0008407BA0720F0621B730B840BBA0BEE1F71
:1007D00088F7E09508950E94F2036894B1110C9493
:1007E000900408950E94750488F09F5798F0B92FDF
:1007F0009927B751B0F0E1F0660F771F881F991F56
:100800001AF0BA95C9F714C0B13091F00E948F0464
:10081000B1E008950C948F04672F782F8827B85F74
:1008200039F0B93FCCF3869577956795B395D9F7AD
:100830003EF490958095709561957F4F8F4F9F4FB7
:100840000895990F0008550FAA0BE0E8FEEF161661
:100850001706E807F907C0F012161306E407F507B4
:1008600098F0621B730B840B950B39F40A2661F028
:10087000232B242B252B21F408950A2609F4A140CB
:10088000A6958FEF811D811D089597F99F6780E8D8
:1008900070E060E008959FEF80EC089500240A94D2
:1008A0001616170618060906089500240A9412164B
:1008B0001306140605060895092E0394000C11F47E
:1008C000882352F0BB0F40F4BF2B11F460FF04C02B
:1008D0006F5F7F4F8F4F9F4F089557FD9058440F84
:1008E000551F59F05F3F71F04795880F97FB991F8F
:1008F00061F09F3F79F0879508951216130614064C
:10090000551FF2CF4695F1DF08C0161617061806D8
:10091000991FF1CF86957105610508940895E894B3
:10092000BB2766277727CB0197F908950E942104FA
:1009300008F48FEF08950E94AE040C945C040E94AA
:100940004E0438F00E94550420F0952311F00C94C9
:1009500045040C944B0411240C9490040E946D04E3
:1009600070F3959FC1F3950F50E0551F629FF00102
:10097000729FBB27F00DB11D639FAA27F00DB11D1B
:10098000AA1F649F6627B00DA11D661F829F2227A4
:10099000B00DA11D621F739FB00DA11D621F839F2B
:1009A000A00D611D221F749F3327A00D611D231F01
:1009B000849F600D211D822F762F6A2F11249F574F
:1009C00050409AF0F1F088234AF0EE0FFF1FBB1F52
:1009D000661F771F881F91505040A9F79E3F510511
:1009E00080F00C9445040C9490045F3FE4F3983E2F
:1009F000D4F3869577956795B795F795E7959F5FBB
:100A0000C1F7FE2B880F911D9695879597F908954C
:040A1000F894FFCF88
:100A14000100000000000002000000005801000076
:100A24000000A4D082437BD49243A4D0A443719DFC
:100A3400AE430000C4430000DC43A4F0F64300D0FE
:020A440002446A
:00000001FF
