:100000000C9446000C9465000C9465000C946500FB
:100010000C9465000C9465000C9465000C946500CC
:100020000C9465000C9465000C9465000C946500BC
:100030000C9465000C94B5000C9465000C9465005C
:100040000C9465000C9465000C9465000C9465009C
:100050000C9465000C9465000C9465000C9465008C
:100060000C9465000C9465000C9465000C9465007C
:100070000C9465000C9465000C9465000C9465006C
:100080000C9465000C9465000C94650011241FBE4F
:10009000CFEFD0E4DEBFCDBF11E0A0E0B1E0ECE9EE
:1000A000F9E000E00BBF02C007900D92AE39B10736
:1000B000D9F721E0AEE9B1E001C01D92AC3AB20738
:1000C000E1F70E9404030C94CC040C940000CF933D
:1000D000DF93CDB7DEB781E890E02BE0FC01208311
:1000E00088E890E02DE730E0FC01318320838FE643
:1000F00090E022E0FC01208384E890E0FC01118282
:1001000010828091000190910101A0910201B091B3
:10011000030180939F019093A001A093A101B0934C
:10012000A2018FE590E02FE530E0F9012081206801
:10013000FC0120830000DF91CF910895CF93DF93DE
:10014000CDB7DEB781E890E0FC0110820000DF91BE
:10015000CF910895CF93DF93CDB7DEB781E0809341
:100160009E010000DF91CF9108951F920F920090A1
:100170005F000F92112400905B000F922F933F932A
:100180004F935F936F937F938F939F93AF93BF939F
:10019000EF93FF93CF93DF93CDB7DEB780919F01AD
:1001A0009091A001A091A101B091A2010197A10994
:1001B000B10980939F019093A001A093A101B093F6
:1001C000A20180919F019091A001A091A101B09105
:1001D000A201892B8A2B8B2B91F40E94AA0080917B
:1001E000000190910101A0910201B091030180935F
:1001F0009F019093A001A093A101B093A2010000E0
:10020000DF91CF91FF91EF91BF91AF919F918F912E
:100210007F916F915F914F913F912F910F9000923D
:100220005B000F9000925F000F901F901895CF9386
:10023000DF9300D000D0CDB7DEB769837A838B839C
:100240009C8389819A81AB81BC81809300019093CA
:100250000101A0930201B0930301809100019091EC
:100260000101A0910201B091030180939F0190933D
:10027000A001A093A101B093A20100000F900F90E4
:100280000F900F90DF91CF910895CF93DF9300D01F
:100290001F92CDB7DEB789837B836A8389818A30D9
:1002A00031F48A819B81BC018DE00E94450180EC84
:1002B00090E0FC018081882F90E080729927892B43
:1002C000B1F386EC90E02981FC01208380E090E08E
:1002D0000F900F900F90DF91CF9108950F931F9380
:1002E000CF93DF9300D000D0CDB7DEB769837A8398
:1002F0008B839C838091A6019091A701A091A80176
:10030000B091A9019C01AD0169817A818B819C81A9
:100310000E943803882309F477C020E030E0A90167
:1003200069817A818B819C810E943803882351F4F2
:1003300081E990E021E930E0F90120812870FC0199
:10034000208309C081E990E021E930E0F9012081B2
:100350002360FC01208328E539E344E75FE36981FA
:100360007A818B819C810E943803882344F488E938
:1003700090E02FEF3FEFFC013183208334C020E079
:1003800034E244EF56E469817A818B819C810E943A
:100390005A04181634F488E990E0FC0111821082A6
:1003A00022C008E910E020E030E040E053E4698139
:1003B0007A818B819C810E945F04DC01CB019C01CE
:1003C000AD0160E074E284EF9AE40E943D03DC0139
:1003D000CB01BC01CD010E94AF03DC01CB01019731
:1003E000F8019183808384E990E0FC0111821082FE
:1003F00089819A81AB81BC818093A6019093A701EA
:10040000A093A801B093A90100000F900F900F9046
:100410000F90DF91CF911F910F910895CF93DF93AC
:10042000CDB7DEB780E990E020E4FC01208381E9CC
:1004300090E02BE0FC01208360E070E0CB010E94A3
:100440006E010000DF91CF910895CF93DF93CDB778
:10045000DEB780E990E0FC01108281E990E0FC01C8
:1004600010820000DF91CF910895CF93DF931F9208
:10047000CDB7DEB780E290E0FC018081882F90E06C
:100480008170992721E0892B09F020E02983809150
:10049000AA019091AB018130910589F081309105DD
:1004A00038F084309105E1F0059709F455C061C03A
:1004B00081E090E09093AB018093AA0160C08981B4
:1004C000882339F084E090E09093AB018093AA01F7
:1004D00056C081E090E09093AB018093AA014FC099
:1004E00084E090E09093AB018093AA018091A401F5
:1004F0009091A5019C0140E050E08091A301882FDC
:1005000090E0880F991F880F991F865A9E4FFC0113
:1005100080819181A281B381281739074A075B073F
:1005200038F484E090E09093AB018093AA0109C075
:100530008091A3018F5F8093A3011092A501109277
:10054000A4018091A3018131C8F085E090E09093EF
:10055000AB018093AA0112C08981882319F085E03C
:1005600090E002C081E090E09093AB018093AA01FB
:1005700006C01092AB011092AA0101C00000809148
:10058000AA019091AB018430910579F085309105F5
:1005900099F1019709F033C00E940E021092A30155
:1005A0001092A5011092A4012AC08091A301882F66
:1005B00090E0880F991F880F991F8A5E9E4FFC015B
:1005C00080819181A281B381BC01CD010E946E0125
:1005D0008091120190911301A0911401B091150125
:1005E0009C018091A4019091A501820F931F90938B
:1005F000A5018093A40103C00E9425020000000011
:100600000F90DF91CF910895CF93DF93CDB7DEB7F1
:1006100081E290E0FC01108282E290E02FEFFC0189
:10062000208384E290E020E4FC01208385E290E0D6
:10063000FC0110828091120190911301A09114018C
:10064000B0911501BC01CD010E9417010E94670005
:100650000E940E021092AB011092AA010E94350274
:10066000000080919E018823E1F310929E01F6CF55
:100670000E94E50308F481E008950E9451030C9460
:1006800020040E94190458F00E94120440F029F43A
:100690005F3F29F00C94090451110C9454040C94FC
:1006A0000F040E94310468F39923B1F3552391F3A9
:1006B000951B550BBB27AA2762177307840738F0D1
:1006C0009F5F5F4F220F331F441FAA1FA9F335D02E
:1006D0000E2E3AF0E0E832D091505040E695001CE2
:1006E000CAF72BD0FE2F29D0660F771F881FBB1F9C
:1006F000261737074807AB07B0E809F0BB0B802D7A
:10070000BF01FF2793585F4F3AF09E3F510578F0A5
:100710000C9409040C9454045F3FE4F3983ED4F322
:10072000869577956795B795F7959F5FC9F7880F79
:10073000911D9695879597F90895E1E0660F771FCB
:10074000881FBB1F621773078407BA0720F0621B5C
:10075000730B840BBA0BEE1F88F7E09508950E9487
:10076000B6036894B1110C94540408950E9439049E
:1007700088F09F5798F0B92F9927B751B0F0E1F062
:10078000660F771F881F991F1AF0BA95C9F714C012
:10079000B13091F00E945304B1E008950C945304D9
:1007A000672F782F8827B85F39F0B93FCCF386954B
:1007B00077956795B395D9F73EF4909580957095A8
:1007C00061957F4F8F4F9F4F0895990F0008550FE8
:1007D000AA0BE0E8FEEF16161706E807F907C0F0C7
:1007E00012161306E407F50798F0621B730B840BCF
:1007F000950B39F40A2661F0232B242B252B21F4A9
:1008000008950A2609F4A140A6958FEF811D811D48
:10081000089597F99F6780E870E060E008959FEF82
:1008200080EC089500240A94161617061806090687
:10083000089500240A941216130614060506089556
:10084000092E0394000C11F4882352F0BB0F40F4DE
:10085000BF2B11F460FF04C06F5F7F4F8F4F9F4F1E
:10086000089557FD9058440F551F59F05F3F71F0A0
:100870004795880F97FB991F61F09F3F79F0879507
:100880000895121613061406551FF2CF4695F1DF90
:1008900008C0161617061806991FF1CF8695710520
:1008A000610508940895E894BB2766277727CB0154
:1008B00097F908950E94E50308F48FEF08950E94C8
:1008C00072040C9420040E94120438F00E9419044F
:1008D00020F0952311F00C9409040C940F041124BA
:1008E0000C9454040E94310470F3959FC1F3950F4A
:1008F00050E0551F629FF001729FBB27F00DB11DA4
:10090000639FAA27F00DB11DAA1F649F6627B00D33
:10091000A11D661F829F2227B00DA11D621F739F1C
:10092000B00DA11D621F839FA00D611D221F749F2A
:100930003327A00D611D231F849F600D211D822F71
:10094000762F6A2F11249F5750409AF0F1F0882398
:100950004AF0EE0FFF1FBB1F661F771F881F9150C5
:100960005040A9F79E3F510580F00C9409040C9467
:1009700054045F3FE4F3983ED4F3869577956795EA
:10098000B795F795E7959F5FC1F7FE2B880F911DEF
:0C0990009695879597F90895F894FFCF8D
:10099C000100000000000002000000004501000002
:1009AC000000320000000000DC43000000000000EA
:1009BC00DC43000000000000DC4300000000719DDF
:1009CC00AE430000000000D0024400000000000014
:1009DC00DC4300000000719DAE430000000000D01D
:1009EC000244000000000000DC43F401000032006F
:1009FC000000F401000032000000F401000032009D
:100A0C000000FA00000032000000960000003200E6
:100A1C000000F401000032000000FA000000320077
:0E0A2C0000009600000032000000EE02000004
:00000001FF
