:100000000C9454000C9473000C9473000C947300C3
:100010000C9473000C9473000C9473000C94730094
:100020000C9473000C9473000C9473000C94730084
:100030000C9473000C9473000C9473000C94730074
:100040000C9473000C9473000C9473000C94730064
:100050000C9473000C9473000C9473000C94730054
:100060000C9473000C9473000C9473000C94730044
:100070000C9473000C9473000C9473000C94730034
:100080000C9473000C9473000C947300CB00D2009A
:10009000DF00E600ED00F400FB000801150122017D
:1000A0002F013C014901560111241FBECFEFD0E4BE
:1000B000DEBFCDBF11E0A0E0B1E0EEE7F3E000E08D
:1000C0000BBF02C007900D92AE30B107D9F721E007
:1000D000AEE0B1E001C01D92A031B207E1F70E948D
:1000E00097010C94BD010C940000CF93DF9300D0D6
:1000F0001F92CDB7DEB789837B836A8389818A307B
:1001000031F48A819B81BC018DE00E94750080ECF6
:1001100090E0FC018081882F90E080729927892BE4
:10012000B1F386EC90E02981FC01208380E090E02F
:100130000F900F900F90DF91CF910895CF93DF93A1
:1001400000D0CDB7DEB780E290E0FC018081882F3F
:1001500090E08170992721E0892B09F020E02A8323
:1001600083E290E0FC018081898380910E0190916F
:100170000F01CC01A0E0B0E040E050E02DE030E025
:10018000841B950B2817390708F49DC08A5B9F4F85
:10019000FC010C94B40181E090E090930F018093F6
:1001A0000E0196C08A81882319F082E090E002C097
:1001B00081E090E090930F0180930E0189C086E06A
:1001C00090E090930F0180930E0182C088E090E050
:1001D00090930F0180930E017BC08AE090E0909392
:1001E0000F0180930E0174C08CE090E090930F019A
:1001F00080930E016DC08A81882319F086E090E01B
:1002000002C087E090E090930F0180930E0160C0E0
:100210008A81882319F083E090E002C087E090E0B3
:1002200090930F0180930E0153C08A81882319F0A7
:1002300088E090E002C089E090E090930F01809305
:100240000E0146C08A81882319F084E090E002C044
:1002500089E090E090930F0180930E0139C08A816C
:10026000882319F08AE090E002C08BE090E0909340
:100270000F0180930E012CC08A81882319F085E03C
:1002800090E002C08BE090E090930F0180930E010C
:100290001FC08A81882319F08CE090E002C08DE0B5
:1002A00090E090930F0180930E0112C08A81882301
:1002B00019F082E090E002C08DE090E090930F0191
:1002C00080930E0105C010920F0110920E010000E4
:1002D00080910E0190910F0183309105A1F084303F
:1002E000910530F48130910549F0029749F014C02E
:1002F0008430910559F0059761F00EC019820CC049
:100300008CE0898309C082E1898306C081E2898308
:1003100003C082E18983000085E290E02981FC012D
:10032000208300000F900F90DF91CF910895CF931D
:10033000DF93CDB7DEB781E290E0FC01108282E26C
:1003400090E02FEFFC01208384E290E02FEFFC018E
:10035000208385E290E0FC01108210920F01109240
:100360000E010E949E00FDCFEE0FFF1F0024001C17
:0E0370000BBE0790F691E02D0994F894FFCF94
:0E037E000000000200000000750000000000FA
:00000001FF
