:100000000C9446000C945D000C945D000C945D0013
:100010000C945D000C945D000C945D000C945D00EC
:100020000C945D000C945D000C945D000C945D00DC
:100030000C945D000C945D000C945D000C945D00CC
:100040000C945D000C945D000C945D000C945D00BC
:100050000C945D000C945D000C945D000C945D00AC
:100060000C945D000C945D000C945D000C945D009C
:100070000C945D000C945D000C945D000C945D008C
:100080000C945D000C945D000C945D0011241FBE67
:10009000CFEFD0E4DEBFCDBF11E0A0E0B1E0E0E4FF
:1000A000F2E000E00BBF02C007900D92AE30B10746
:1000B000D9F70E9499000C941E010C940000CF9374
:1000C000DF9300D01F92CDB7DEB789837B836A832D
:1000D00089818A3031F48A819B81BC018DE00E9444
:1000E0005F0080EC90E0FC018081882F90E08072BE
:1000F0009927892BB1F386EC90E02981FC012083BC
:1001000080E090E00F900F900F90DF91CF910895D5
:10011000CF93DF93CDB7DEB78AE790E02AE730E0F0
:10012000F9012081206EFC0120830000DF91CF9136
:100130000895CF93DF9300D000D01F92CDB7DEB7E4
:100140000E94880084E290E02FEFFC01208385E28A
:1001500090E0FC011082198289EC90E09B838A83F5
:1001600088E790E0FC01808191819D838C838C8164
:100170009D81883C910518F08FEF898359C08C814F
:100180009D81883C910540F48C819D818F3A910539
:1001900018F08FE789834CC08C819D818F3A91053F
:1001A00040F48C819D818639910518F08FE3898315
:1001B0003FC08C819D818639910540F48C819D8161
:1001C0008D37910518F08FE1898332C08C819D8134
:1001D0008D37910540F48C819D818436910518F00E
:1001E0008FE0898325C08C819D818436910540F400
:1001F0008C819D818B34910518F087E0898318C02C
:100200008C819D818B34910538F48C819D81C297BE
:1002100018F083E089830CC08C819D81C29738F4EB
:100220008C819D81499718F081E0898301C01982F2
:1002300085E290E02981FC01208392CFF894FFCFE2
:0E02400000000002000000005F00000000004F
:00000001FF
