:100000000C9446000C9465000C9465000C946500FB
:100010000C9465000C9465000C9465000C946500CC
:100020000C9465000C9465000C9465000C946500BC
:100030000C9465000C94B5000C9465000C9465005C
:100040000C9465000C9465000C9465000C9465009C
:100050000C9465000C9465000C9465000C9465008C
:100060000C9465000C9465000C9465000C9465007C
:100070000C9465000C9465000C9465000C9465006C
:100080000C9465000C9465000C94650011241FBE4F
:10009000CFEFD0E4DEBFCDBF11E0A0E0B1E0E8E9F2
:1000A000FDE000E00BBF02C007900D92A231B10746
:1000B000D9F721E0A2E1B1E001C01D92A732B20759
:1000C000E1F70E9496030C94CA060C940000CF93AB
:1000D000DF93CDB7DEB781E890E02BE0FC01208311
:1000E00088E890E02DE730E0FC01318320838FE643
:1000F00090E022E0FC01208384E890E0FC01118282
:1001000010828091000190910101A0910201B091B3
:1001100003018093130190931401A0931501B093F0
:1001200016018FE590E02FE530E0F901208120688D
:10013000FC0120830000DF91CF910895CF93DF93DE
:10014000CDB7DEB781E890E0FC0110820000DF91BE
:10015000CF910895CF93DF93CDB7DEB781E0809341
:1001600012010000DF91CF9108951F920F9200902D
:100170005F000F92112400905B000F922F933F932A
:100180004F935F936F937F938F939F93AF93BF939F
:10019000EF93FF93CF93DF93CDB7DEB78091130139
:1001A00090911401A0911501B09116010197A10938
:1001B000B1098093130190931401A0931501B0939A
:1001C00016018091130190911401A0911501B09135
:1001D0001601892B8A2B8B2B91F40E94AA00809107
:1001E000000190910101A0910201B091030180935F
:1001F000130190931401A0931501B0931601000010
:10020000DF91CF91FF91EF91BF91AF919F918F912E
:100210007F916F915F914F913F912F910F9000923D
:100220005B000F9000925F000F901F901895CF9386
:10023000DF9300D000D0CDB7DEB769837A838B839C
:100240009C8389819A81AB81BC81809300019093CA
:100250000101A0930201B0930301809100019091EC
:100260000101A0910201B0910301809313019093C9
:100270001401A0931501B093160100000F900F9088
:100280000F900F90DF91CF9108950F931F93CF930D
:10029000DF9300D000D0CDB7DEB769837A838B833C
:1002A0009C8380911B0190911C01A0911D01B09134
:1002B0001E019C01AD0169817A818B819C810E9424
:1002C0003605882309F477C020E030E0A901698170
:1002D0007A818B819C810E943605882351F481E9C3
:1002E00090E021E930E0F90120812870FC012083B1
:1002F00009C081E990E021E930E0F9012081236023
:10030000FC01208328E539E344E75FE369817A81D2
:100310008B819C810E943605882344F488E990E013
:100320002FEF3FEFFC013183208334C020E034E223
:1003300044EF56E469817A818B819C810E94580642
:10034000181634F488E990E0FC011182108222C072
:1003500008E910E020E030E040E053E469817A8170
:100360008B819C810E945D06DC01CB019C01AD016B
:1003700060E074E284EF9AE40E943B05DC01CB016B
:10038000BC01CD010E94AD05DC01CB010197F80154
:100390009183808384E990E0FC011182108289813D
:1003A0009A81AB81BC8180931B0190931C01A09327
:1003B0001D01B0931E0100000F900F900F900F9041
:1003C000DF91CF911F910F910895CF93DF93CDB718
:1003D000DEB780E990E020E4FC01208381E990E031
:1003E0002BE0FC01208360E070E0CB010E9445011E
:1003F0000000DF91CF910895CF93DF93CDB7DEB7A3
:1004000080E990E0FC01108281E990E0FC0110821B
:100410000000DF91CF910895CF93DF9300D01F921A
:10042000CDB7DEB789837B836A8389818A3031F4D3
:100430008A819B81BC018DE00E940C0280EC90E0DF
:10044000FC018081882F90E080729927892BB1F37D
:1004500086EC90E02981FC01208380E090E00F9001
:100460000F900F90DF91CF910895CF93DF93CDB789
:10047000DEB780912101909122018130910581F0B8
:100480008130910530F08230910589F00397B1F009
:100490001CC081E090E090932201809321011AC05A
:1004A00082E090E0909322018093210113C083E0C9
:1004B00090E090932201809321010CC081E090E0B4
:1004C000909322018093210105C010922201109285
:1004D000210100008091210190912201813091053C
:1004E00049F08130910590F08230910539F0039701
:1004F00049F00DC081E08093170109C082E080932C
:10050000170105C084E08093170101C000008091AD
:10051000210190912201DF91CF910895CF93DF9334
:10052000CDB7DEB7809125019091260181309105EC
:1005300081F08130910530F082309105C1F0039750
:1005400079F01CC081E090E0909326018093250112
:100550001AC082E090E0909326018093250113C099
:1005600082E090E090932601809325010CC083E007
:1005700090E0909326018093250105C010922601FA
:100580001092250100008091250190912601813073
:10059000910549F08130910580F08230910549F054
:1005A000039721F00BC01092180108C01092180197
:1005B00005C088E08093180101C0000080912501EA
:1005C00090912601DF91CF910895CF93DF93CDB71E
:1005D000DEB78091230190912401009719F00197D3
:1005E00041F00EC081E090E09093240180932301BC
:1005F0000CC081E090E0909324018093230105C01A
:100600001092240110922301000080912301909107
:100610002401009771F0019709F00CC09091190125
:1006200080911801982B80911701892B80931A01D2
:1006300001C000000000DF91CF910895CF93DF93B8
:100640001F92CDB7DEB780E290E0FC018081882F59
:1006500090E08170992721E0892B09F020E029831F
:1006600080911F01909120018130910581F08130AE
:10067000910530F082309105B9F0039711F12EC049
:1006800081E090E09093200180931F012CC089812C
:10069000882319F083E090E002C081E090E090931D
:1006A000200180931F011FC08981882319F083E0F6
:1006B00090E002C082E090E09093200180931F01BF
:1006C00012C08981882319F083E090E002C082E0A3
:1006D00090E09093200180931F0105C010922001AB
:1006E00010921F01000080911F0190912001813024
:1006F000910549F08130910580F08230910531F00B
:10070000039739F00BC01092190108C0109219011B
:1007100005C080E18093190101C0000080911F0194
:10072000909120010F90DF91CF9108950F931F9327
:10073000CF93DF93CDB7DEB72A970FB6F894DEBF1D
:100740000FBECDBF81E290E0FC01108282E290E01A
:100750002FEFFC01208384E290E02FEFFC01208347
:1007600085E290E0FC01108283E08A838A81882FF1
:1007700090E001979C838B838A81282F30E0C90108
:10078000880F991F820F931F880F991F880F991F39
:100790008A81282F30E0C901880F991F820F931F8B
:1007A000880F991F880F991F2DB73EB7281B390B4B
:1007B0000FB6F8943EBF0FBE2DBF8DB79EB7019602
:1007C0009E838D838D819E81FC01118210822D81FB
:1007D0003E818CE291E0A0E0B0E0F9018283938356
:1007E000A483B5838D819E81FC0182819381A48144
:1007F000B5812D813E81F90186839783A087B187DA
:100800008D819E8125E332E0FC01338722878D8133
:100810009E81FC01158614862D813E8188EE93E031
:10082000A0E0B0E0F90186879787A08BB18B8D811E
:100830009E81FC0186859785A089B1892D813E81A5
:10084000F901828B938BA48BB58B8D819E812EE8D1
:1008500032E0FC01378B268B8D819E81FC01118E4D
:10086000108E2D813E8182E090E0A0E0B0E0F901A1
:10087000828F938FA48FB58F8D819E81FC01828D95
:10088000938DA48DB58D2D813E81F901868F978F33
:10089000A0A3B1A38D819E812EE133E0FC0133A39F
:1008A00022A381E090E0A0E0B0E08F839887A98741
:1008B000BA878F819885A985BA85BC01CD010E9430
:1008C00017010E9467001982BCC08981282F30E07F
:1008D0004D815E81C901880F991F820F931F880F78
:1008E000991F880F991F840F951F0696FC01208180
:1008F0003181428153818981682F70E0ED81FE81D1
:10090000CB01880F991F860F971F880F991F880F9B
:10091000991F8E0F9F1F0296FC0180819181A281F9
:10092000B381281739074A075B0708F453C0898148
:10093000082F10E08981282F30E04D815E81C901A8
:10094000880F991F820F931F880F991F880F991F77
:10095000840F951F0A96FC01408151818981282FBF
:1009600030E06D817E81C901880F991F820F931F2E
:10097000880F991F880F991F860F971FFC01808190
:100980009181FA010995AC012D813E81C801880F42
:10099000991F800F911F880F991F880F991F820F31
:1009A000931FFC01518340838981282F30E04D81C2
:1009B0005E81C901880F991F820F931F880F991FAD
:1009C000880F991F840F951F0696FC0110821182D3
:1009D000128213828981682F70E08981282F30E08C
:1009E0004D815E81C901880F991F820F931F880F67
:1009F000991F880F991F840F951F0696FC0120816F
:100A00003181428153818F819885A985BA85280FCC
:100A1000391F4A1F5B1FED81FE81CB01880F991F93
:100A2000860F971F880F991F880F991F8E0F9F1F82
:100A30000696FC01208331834283538389818F5F33
:100A4000898399818A81981708F43FCF0E94E50233
:100A500085E290E020911A01FC0120830000809142
:100A600012018823E1F3109212012DCF0E94E305B9
:100A700008F481E008950E944F050C941E060E9420
:100A8000170658F00E94100640F029F45F3F29F045
:100A90000C94070651110C9452060C940D060E94FA
:100AA0002F0668F39923B1F3552391F3951B550B4A
:100AB000BB27AA2762177307840738F09F5F5F4F31
:100AC000220F331F441FAA1FA9F335D00E2E3AF070
:100AD000E0E832D091505040E695001CCAF72BD088
:100AE000FE2F29D0660F771F881FBB1F26173707D9
:100AF0004807AB07B0E809F0BB0B802DBF01FF270B
:100B000093585F4F3AF09E3F510578F00C940706DA
:100B10000C9452065F3FE4F3983ED4F386957795A4
:100B20006795B795F7959F5FC9F7880F911D9695C3
:100B3000879597F90895E1E0660F771F881FBB1F1F
:100B4000621773078407BA0720F0621B730B840BCC
:100B5000BA0BEE1F88F7E09508950E94B4056894DB
:100B6000B1110C94520608950E94370688F09F57E1
:100B700098F0B92F9927B751B0F0E1F0660F771FC1
:100B8000881F991F1AF0BA95C9F714C0B13091F0B7
:100B90000E945106B1E008950C945106672F782FFA
:100BA0008827B85F39F0B93FCCF38695779567957C
:100BB000B395D9F73EF490958095709561957F4FE8
:100BC0008F4F9F4F0895990F0008550FAA0BE0E82B
:100BD000FEEF16161706E807F907C0F012161306FF
:100BE000E407F50798F0621B730B840B950B39F43F
:100BF0000A2661F0232B242B252B21F408950A26A5
:100C000009F4A140A6958FEF811D811D089597F9E4
:100C10009F6780E870E060E008959FEF80EC0895A2
:100C200000240A94161617061806090608950024CB
:100C30000A9412161306140605060895092E039445
:100C4000000C11F4882352F0BB0F40F4BF2B11F4B9
:100C500060FF04C06F5F7F4F8F4F9F4F089557FD18
:100C60009058440F551F59F05F3F71F04795880F1A
:100C700097FB991F61F09F3F79F0879508951216B1
:100C800013061406551FF2CF4695F1DF08C016165D
:100C900017061806991FF1CF86957105610508940E
:100CA0000895E894BB2766277727CB0197F9089525
:100CB0000E94E30508F48FEF08950E9470060C94DB
:100CC0001E060E94100638F00E94170620F0952399
:100CD00011F00C9407060C940D0611240C94520686
:100CE0000E942F0670F3959FC1F3950F50E0551F9A
:100CF000629FF001729FBB27F00DB11D639FAA2771
:100D0000F00DB11DAA1F649F6627B00DA11D661FBF
:100D1000829F2227B00DA11D621F739FB00DA11DE0
:100D2000621F839FA00D611D221F749F3327A00D9A
:100D3000611D231F849F600D211D822F762F6A2F36
:100D400011249F5750409AF0F1F088234AF0EE0F9B
:100D5000FF1FBB1F661F771F881F91505040A9F7C8
:100D60009E3F510580F00C9407060C9452065F3F9D
:100D7000E4F3983ED4F3869577956795B795F79504
:100D8000E7959F5FC1F7FE2B880F911D969587957C
:080D900097F90895F894FFCFD4
:100D98000100000000000002000000000C0200003A
:020DA800000049
:00000001FF
